S01C000046696E616C2050726F6A6563745F4553453531392E737265634C
S11300000C9434000C9451000C9451000C94510045
S11300100C9451000C9451000C9451000C94510018
S11300200C9451000C9451000C94DC000C9451007D
S11300300C9451000C9451000C9451000C945100F8
S11300400C9451000C9451000C9451000C945100E8
S11300500C9451000C9451000C9451000C945100D8
S11300600C9451000C94510011241FBECFEFD8E022
S1130070DEBFCDBF11E0A0E0B1E0EEE6FBE002C0E0
S113008005900D92A630B107D9F721E0A6E0B1E0C2
S113009001C01D92AC31B207E1F70E9419010C9422
S11300A0B5050C940000FC0107C09091C00095FFB9
S11300B0FCCF8093C600319680818111F6CF0895DC
S11300C0F89484B1886084B984B18E7F84B984B192
S11300D0846084B987B18F7D87B9E0EBF0E08081DB
S11300E08068808380818064808380818260808353
S11300F0808181608083E1EBF0E080818B7F80836D
S113010080818260808380818E7F80838BEE809368
S1130110B300E0E8F0E08081887F80838081897F7C
S11301208083E1E8F0E080818064808380818B7F3C
S1130130808380818260808380818E7F8083EFE6EC
S1130140F0E0808180628083789408956091060154
S113015070910701072E000C880B990B0E94D201A5
S113016020E030E040E057E40E94360220E030E036
S113017040E857E30E9436020E949A0170930D01F1
S113018060930C01072E000C880B990B0E94D2017E
S113019026E933E44BE05DE30E94360220E030E0E0
S11301A040E05FE30E9436020E949A0170931B01B3
S11301B060931A01CB0108951F920F920FB60F920C
S11301C011242F933F938F939F93EF93FF938091E9
S11301D0810086FF09C080918600909187009093EA
S11301E009018093080112C08091860090918700D4
S11301F02091080130910901821B930B9093070110
S1130200809306011092090110920801E1E8F0E0E0
S1130210908180E48927808380E286BBFF91EF91FF
S11302209F918F913F912F910F900FBE0F901F9030
S113023018950E94600085B18B7F85B988B18F7D48
S113024088B980910B018F9380910A018F9380E08C
S113025091E09F938F9380E191E09F938F930E940D
S1130260CB0280E191E00E9453002FEF89E698E1F0
S1130270215080409040E1F700C000000F900F90A3
S11302800F900F900F900F90359907C022C0359BA7
S11302900CC0019621E030E004C080E090E020E052
S11302A030E0823391059CF302C020E030E021303D
S11302B0310579F485B1846085B92FEF8BE792E934
S11302C0215080409040E1F700C0000085B18B7F51
S11302D085B980910A0190910B010197099770F0FB
S11302E025C00E94A60090930B0180930A010197F8
S11302F0099760F4219681E090E004C0C0E0D0E06A
S113030080E090E0C233D10564F302C080E090E065
S1130310892B61F085B1846085B92FEF8BE792E971
S1130320215080409040E1F700C0000085B18B7FF0
S113033085B987CF0E94A1016894B1110C94300251
S113034008950E94150288F09F5798F0B92F9927B5
S1130350B751B0F0E1F0660F771F881F991F1AF0AC
S1130360BA95C9F714C0B13091F00E942F02B1E0E0
S113037008950C942F02672F782F8827B85F39F0DF
S1130380B93FCCF3869577956795B395D9F73EF445
S113039090958095709561957F4F8F4F9F4F0895ED
S11303A0E89409C097FB3EF490958095709561950B
S11303B07F4F8F4F9F4F9923A9F0F92F96E9BB27C1
S11303C09395F695879577956795B795F111F8CF3D
S11303D0FAF4BB0F11F460FF1BC06F5F7F4F8F4FA8
S11303E09F4F16C0882311F096E911C0772321F09E
S11303F09EE8872F762F05C0662371F096E8862F36
S113040070E060E02AF09A95660F771F881FDAF78C
S1130410880F9695879597F9089557FD9058440F3E
S1130420551F59F05F3F71F04795880F97FB991F4F
S113043061F09F3F79F0879508951216130614060C
S1130440551FF2CF4695F1DF08C016161706180699
S1130450991FF1CF86957105610508940895E89474
S1130460BB2766277727CB0197F908950E94490295
S11304700C94BA020E94AC0238F00E94B30220F03D
S1130480952311F00C94A3020C94A90211240C944A
S113049030020E940D0270F3959FC1F3950F50E056
S11304A0551F629FF001729FBB27F00DB11D639F22
S11304B0AA27F00DB11DAA1F649F6627B00DA11DC8
S11304C0661F829F2227B00DA11D621F739FB00D6E
S11304D0A11D621F839FA00D611D221F749F3327DE
S11304E0A00D611D231F849F600D211D822F762F77
S11304F06A2F11249F5750409AF0F1F088234AF054
S1130500EE0FFF1FBB1F661F771F881F91505040BF
S1130510A9F79E3F510580F00C94A3020C9430027D
S11305205F3FE4F3983ED4F3869577956795B79546
S1130530F795E7959F5FC1F7FE2B880F911D969560
S1130540879597F9089597F99F6780E870E060E0D0
S113055008959FEF80EC089500240A941616170658
S113056018060906089500240A94121613061406A0
S113057005060895092E0394000C11F4882352F003
S1130580BB0F40F4BF2B11F460FF04C06F5F7F4FBB
S11305908F4F9F4F0895AEE0B0E0E1EDF2E00C9490
S11305A08C050D891E8986E08C831A8309838FEF5D
S11305B09FE79E838D83AE01475E5F4F6F89788D81
S11305C0CE0101960E94ED02EF81F885E00FF11F44
S11305D010822E96E4E00C94A805ABE0B0E0E3EFC3
S11305E0F2E00C947E056C017B018A01FC01178208
S11305F01682838181FFCCC1CE0101963C01F601B4
S11306009381F70193FD859193FF81917F01882365
S113061009F4BAC1853239F493FD859193FF819130
S11306207F01853229F4B60190E00E94E404E7CF0B
S1130630912C212C312CFFE1F315D8F08B3279F079
S113064038F4803279F08332A1F4232D20611DC067
S11306508D3261F0803369F4232D216016C0832D1F
S11306608260382EE32DE4603E2E2AC0F32DF8601C
S11306701DC037FC2DC020ED280F2A3040F08E32EB
S1130680B9F436FC81C1232D2064322E19C036FE04
S113069006C08AE0989E200D1124922E11C0EAE033
S11306A02E9E200D1124222EF32DF0623F2E08C021
S11306B08C3621F4832D8068382E02C0883641F4AC
S11306C0F70193FD859193FF81917F018111B3CF50
S11306D0982F9F7D9554933028F40C5F1F4F9FE310
S11306E099830DC0833631F0833771F0833509F077
S11306F059C021C0F801808189830E5F1F4F88246F
S11307008394912C530113C02801F2E04F0E511C25
S1130710F801A080B18036FE03C0692D70E002C0EC
S11307206FEF7FEFC5010E94D9044C018201F32DC4
S1130730FF773F2E16C0280122E0420E511CF8011B
S1130740A080B18036FE03C0692D70E002C06FEF57
S11307507FEFC5010E94CE044C01F32DF0683F2EBB
S1130760820133FC1BC0822D90E088169906B0F4F8
S1130770B60180E290E00E94E4042A94F4CFF501EB
S113078037FC859137FE81915F01B60190E00E94AC
S1130790E40421102A9421E0821A9108811491041E
S11307A071F7E8C0843611F0893641F5F80137FE57
S11307B007C060817181828193810C5F1F4F08C0E3
S11307C060817181072E000C880B990B0E5F1F4FFF
S11307D0F32DFF763F2E97FF09C090958095709575
S11307E061957F4F8F4F9F4FF0683F2E2AE030E096
S11307F0A3010E942005882E861845C0853731F450
S1130800232D2F7EB22E2AE030E025C0932D997F30
S1130810B92E8F36C1F018F4883579F0B5C0803719
S113082019F0883721F0B0C0E92FE061BE2EB4FE84
S11308300DC0FB2DF460BF2E09C034FE0AC0292F61
S11308402660B22E06C028E030E005C020E130E08A
S113085002C020E132E0F801B7FE07C06081718177
S1130860828193810C5F1F4F06C06081718180E09B
S113087090E00E5F1F4FA3010E942005882E86186A
S1130880FB2DFF773F2E36FE0DC0232D2E7FA22E8B
S1130890891458F434FE0BC032FC09C0832D8E7EBB
S11308A0A82E05C0B82CA32C03C0B82C01C0B92CA9
S11308B0A4FE0FC0FE01E80DF11D8081803321F4F8
S11308C09A2D997EA92E09C0A2FE06C0B394B394B2
S11308D004C08A2D867809F0B394A3FC11C0A0FE4D
S11308E006C0B21488F4280C922C9B180EC0B214C3
S11308F060F4B60180E290E00E94E404B394F7CF80
S1130900B21418F42B1802C0982C212CA4FE10C089
S1130910B60180E390E00E94E404A2FE17C0A1FCAB
S113092003C088E790E002C088E590E0B6010CC0FF
S11309308A2D867859F0A1FE02C08BE201C080E2C4
S1130940A7FC8DE2B60190E00E94E404891438F417
S1130950B60180E390E00E94E4049A94F7CF8A946D
S1130960F301E80DF11D8081B60190E00E94E404DA
S11309708110F5CF222009F442CEB60180E290E046
S11309800E94E4042A94F6CFF6018681978102C07E
S11309908FEF9FEF2B96E2E10C949A05FC010590F2
S11309A0615070400110D8F7809590958E0F9F1F6D
S11309B00895FC016150704001900110D8F78095B2
S11309C090958E0F9F1F08950F931F93CF93DF93DE
S11309D0FB01238121FD03C08FEF9FEF2CC022FF79
S11309E016C046815781248135814217530744F448
S11309F0A081B1819D012F5F3F4F318320838C9370
S1130A00268137812F5F3F4F3783268314C08B01A4
S1130A10EC01FB010084F185E02D0995892BE1F6B9
S1130A20D80116968D919C911797019617969C93D1
S1130A308E931697CE01DF91CF911F910F91089558
S1130A40FA01AA27283051F1203181F1E8946F93FB
S1130A506E7F6E5F7F4F8F4F9F4FAF4FB1E03ED0A1
S1130A60B4E03CD0670F781F891F9A1FA11D680F3F
S1130A70791F8A1F911DA11D6A0F711D811D911D72
S1130A80A11D20D009F468943F912AE0269F1124E7
S1130A903019305D3193DEF6CF010895462F47704B
S1130AA0405D4193B3E00FD0C9F7F6CF462F4F70A6
S1130AB0405D4A3318F0495D31FD4052419302D004
S1130AC0A9F7EACFB4E0A6959795879577956795AA
S1130AD0BA95C9F700976105710508959B01AC01AA
S1130AE00A2E06945795479537952795BA95C9F7D1
S1130AF0620F731F841F951FA01D08952F923F92AC
S1130B004F925F926F927F928F929F92AF92BF9219
S1130B10CF92DF92EF92FF920F931F93CF93DF93C5
S1130B20CDB7DEB7CA1BDB0B0FB6F894DEBF0FBE22
S1130B30CDBF09942A88398848885F846E847D846F
S1130B408C849B84AA84B984C884DF80EE80FD8071
S1130B500C811B81AA81B981CE0FD11D0FB6F894E7
S1110B60DEBF0FBECDBFED010895F894FFCFA8
S1090B6E202564200000B4
S9030000FC
